{
  "_format": "hh-sol-artifact-1",
  "contractName": "Egame",
  "sourceName": "contracts/Egame.sol",
  "abi": [
    {
      "inputs": [],
      "stateMutability": "nonpayable",
      "type": "constructor"
    },
    {
      "anonymous": false,
      "inputs": [
        {
          "indexed": true,
          "internalType": "address",
          "name": "owner",
          "type": "address"
        },
        {
          "indexed": true,
          "internalType": "address",
          "name": "spender",
          "type": "address"
        },
        {
          "indexed": false,
          "internalType": "uint256",
          "name": "value",
          "type": "uint256"
        }
      ],
      "name": "Approval",
      "type": "event"
    },
    {
      "anonymous": false,
      "inputs": [
        {
          "indexed": false,
          "internalType": "uint256",
          "name": "amount",
          "type": "uint256"
        }
      ],
      "name": "Bought",
      "type": "event"
    },
    {
      "anonymous": false,
      "inputs": [
        {
          "indexed": false,
          "internalType": "uint256",
          "name": "amount",
          "type": "uint256"
        }
      ],
      "name": "Sold",
      "type": "event"
    },
    {
      "anonymous": false,
      "inputs": [
        {
          "indexed": true,
          "internalType": "address",
          "name": "from",
          "type": "address"
        },
        {
          "indexed": true,
          "internalType": "address",
          "name": "to",
          "type": "address"
        },
        {
          "indexed": false,
          "internalType": "uint256",
          "name": "value",
          "type": "uint256"
        }
      ],
      "name": "Transfer",
      "type": "event"
    },
    {
      "inputs": [],
      "name": "DECIMALS",
      "outputs": [
        {
          "internalType": "uint8",
          "name": "",
          "type": "uint8"
        }
      ],
      "stateMutability": "view",
      "type": "function"
    },
    {
      "inputs": [],
      "name": "NANME",
      "outputs": [
        {
          "internalType": "string",
          "name": "",
          "type": "string"
        }
      ],
      "stateMutability": "view",
      "type": "function"
    },
    {
      "inputs": [],
      "name": "SYMBOL",
      "outputs": [
        {
          "internalType": "string",
          "name": "",
          "type": "string"
        }
      ],
      "stateMutability": "view",
      "type": "function"
    },
    {
      "inputs": [
        {
          "internalType": "address",
          "name": "owner",
          "type": "address"
        },
        {
          "internalType": "address",
          "name": "delegate",
          "type": "address"
        }
      ],
      "name": "allowance",
      "outputs": [
        {
          "internalType": "uint256",
          "name": "",
          "type": "uint256"
        }
      ],
      "stateMutability": "view",
      "type": "function"
    },
    {
      "inputs": [
        {
          "internalType": "address",
          "name": "",
          "type": "address"
        },
        {
          "internalType": "address",
          "name": "",
          "type": "address"
        }
      ],
      "name": "allowed",
      "outputs": [
        {
          "internalType": "uint256",
          "name": "",
          "type": "uint256"
        }
      ],
      "stateMutability": "view",
      "type": "function"
    },
    {
      "inputs": [
        {
          "internalType": "address",
          "name": "delegate",
          "type": "address"
        },
        {
          "internalType": "uint256",
          "name": "numTokens",
          "type": "uint256"
        }
      ],
      "name": "approve",
      "outputs": [
        {
          "internalType": "bool",
          "name": "",
          "type": "bool"
        }
      ],
      "stateMutability": "nonpayable",
      "type": "function"
    },
    {
      "inputs": [
        {
          "internalType": "address",
          "name": "tokenOwner",
          "type": "address"
        }
      ],
      "name": "balanceOf",
      "outputs": [
        {
          "internalType": "uint256",
          "name": "",
          "type": "uint256"
        }
      ],
      "stateMutability": "view",
      "type": "function"
    },
    {
      "inputs": [
        {
          "internalType": "address",
          "name": "",
          "type": "address"
        }
      ],
      "name": "balances",
      "outputs": [
        {
          "internalType": "uint256",
          "name": "",
          "type": "uint256"
        }
      ],
      "stateMutability": "view",
      "type": "function"
    },
    {
      "inputs": [
        {
          "internalType": "uint256",
          "name": "_score",
          "type": "uint256"
        }
      ],
      "name": "claimScore",
      "outputs": [],
      "stateMutability": "nonpayable",
      "type": "function"
    },
    {
      "inputs": [],
      "name": "claimToken",
      "outputs": [],
      "stateMutability": "nonpayable",
      "type": "function"
    },
    {
      "inputs": [
        {
          "internalType": "address",
          "name": "_player",
          "type": "address"
        }
      ],
      "name": "getScore",
      "outputs": [
        {
          "internalType": "uint256",
          "name": "",
          "type": "uint256"
        }
      ],
      "stateMutability": "view",
      "type": "function"
    },
    {
      "inputs": [
        {
          "internalType": "address",
          "name": "_player",
          "type": "address"
        }
      ],
      "name": "getToken",
      "outputs": [
        {
          "internalType": "uint256",
          "name": "",
          "type": "uint256"
        }
      ],
      "stateMutability": "view",
      "type": "function"
    },
    {
      "inputs": [
        {
          "internalType": "address",
          "name": "",
          "type": "address"
        }
      ],
      "name": "mappingPlayer",
      "outputs": [
        {
          "internalType": "uint256",
          "name": "score",
          "type": "uint256"
        },
        {
          "internalType": "uint256",
          "name": "token",
          "type": "uint256"
        },
        {
          "internalType": "bytes32",
          "name": "pointer",
          "type": "bytes32"
        }
      ],
      "stateMutability": "view",
      "type": "function"
    },
    {
      "inputs": [],
      "name": "token",
      "outputs": [
        {
          "internalType": "contract IERC20",
          "name": "",
          "type": "address"
        }
      ],
      "stateMutability": "view",
      "type": "function"
    },
    {
      "inputs": [],
      "name": "totalSupply",
      "outputs": [
        {
          "internalType": "uint256",
          "name": "",
          "type": "uint256"
        }
      ],
      "stateMutability": "view",
      "type": "function"
    },
    {
      "inputs": [],
      "name": "totalSupply_",
      "outputs": [
        {
          "internalType": "uint256",
          "name": "",
          "type": "uint256"
        }
      ],
      "stateMutability": "view",
      "type": "function"
    },
    {
      "inputs": [
        {
          "internalType": "address",
          "name": "receiver",
          "type": "address"
        },
        {
          "internalType": "uint256",
          "name": "numTokens",
          "type": "uint256"
        }
      ],
      "name": "transfer",
      "outputs": [
        {
          "internalType": "bool",
          "name": "",
          "type": "bool"
        }
      ],
      "stateMutability": "nonpayable",
      "type": "function"
    },
    {
      "inputs": [
        {
          "internalType": "address",
          "name": "owner",
          "type": "address"
        },
        {
          "internalType": "address",
          "name": "buyer",
          "type": "address"
        },
        {
          "internalType": "uint256",
          "name": "numTokens",
          "type": "uint256"
        }
      ],
      "name": "transferFrom",
      "outputs": [
        {
          "internalType": "bool",
          "name": "",
          "type": "bool"
        }
      ],
      "stateMutability": "nonpayable",
      "type": "function"
    }
  ],
  "bytecode": "0x6080604052683635c9adc5dea0000060025534801561001d57600080fd5b5060025433600090815260208190526040908190209190915560016003555161004590610087565b604051809103906000f080158015610061573d6000803e3d6000fd5b50600480546001600160a01b0319166001600160a01b0392909216919091179055610094565b61072880610dfc83390190565b610d59806100a36000396000f3fe608060405234801561001057600080fd5b50600436106101165760003560e01c80635c658165116100a2578063d47875d011610071578063d47875d0146102c3578063d5571fc8146102ec578063dd62ed3e146102ff578063f76f8d7814610338578063fc0c546a1461035a57600080fd5b80635c6581651461022b57806370a0823114610256578063a9059cbb1461027f578063beb486fc1461029257600080fd5b806327e235e3116100e957806327e235e3146101b25780632e0f2625146101d2578063324536eb146101ec5780634451d89f146101f557806359770438146101ff57600080fd5b80630328c66a1461011b578063095ea7b31461016a57806318160ddd1461018d57806323b872dd1461019f575b600080fd5b61014a610129366004610b5f565b60056020526000908152604090208054600182015460029092015490919083565b604080519384526020840192909252908201526060015b60405180910390f35b61017d610178366004610b81565b610385565b6040519015158152602001610161565b6002545b604051908152602001610161565b61017d6101ad366004610bab565b6103f1565b6101916101c0366004610b5f565b60006020819052908152604090205481565b6101da601281565b60405160ff9091168152602001610161565b61019160025481565b6101fd6105a4565b005b61019161020d366004610b5f565b6001600160a01b031660009081526005602052604090206001015490565b610191610239366004610be7565b600160209081526000928352604080842090915290825290205481565b610191610264366004610b5f565b6001600160a01b031660009081526020819052604090205490565b61017d61028d366004610b81565b61084b565b6102b6604051806040016040528060058152602001644547414d4560d81b81525081565b6040516101619190610c1a565b6101916102d1366004610b5f565b6001600160a01b031660009081526005602052604090205490565b6101fd6102fa366004610c6f565b610931565b61019161030d366004610be7565b6001600160a01b03918216600090815260016020908152604080832093909416825291909152205490565b6102b66040518060400160405280600381526020016245474d60e81b81525081565b60045461036d906001600160a01b031681565b6040516001600160a01b039091168152602001610161565b3360008181526001602090815260408083206001600160a01b038716808552925280832085905551919290917f8c5be1e5ebec7d5bd14f71427d1e84f3dd0314c0f7b2291e5b200ac8c7c3b925906103e09086815260200190565b60405180910390a350600192915050565b6001600160a01b03831660009081526020819052604081205482111561044f5760405162461bcd60e51b815260206004820152600e60248201526d14dd5c1c1b1e48195e18d959195960921b60448201526064015b60405180910390fd5b6001600160a01b03841660009081526001602090815260408083203384529091529020548211156104ae5760405162461bcd60e51b8152602060048201526009602482015268616c6c6f77616e636560b81b6044820152606401610446565b6001600160a01b0384166000908152602081905260409020546104d2908390610c9e565b6001600160a01b038516600090815260208181526040808320939093556001815282822033835290522054610508908390610c9e565b6001600160a01b0380861660009081526001602090815260408083203384528252808320949094559186168152908190522054610546908390610cb5565b6001600160a01b038481166000818152602081815260409182902094909455518581529092918716917fddf252ad1be2c89b69c2b068fc378daa952ba7f163c4a11628f55a4df523b3ef910160405180910390a35060019392505050565b600260035414156105f75760405162461bcd60e51b815260206004820152601f60248201527f5265656e7472616e637947756172643a207265656e7472616e742063616c6c006044820152606401610446565b600260035533600090815260056020526040812060010154600480546040516370a0823160e01b815230928101929092529192506000916001600160a01b0316906370a0823190602401602060405180830381865afa15801561065e573d6000803e3d6000fd5b505050506040513d601f19601f820116820180604052508101906106829190610ccd565b600480546040516370a0823160e01b8152309281019290925291925083916001600160a01b0316906370a0823190602401602060405180830381865afa1580156106d0573d6000803e3d6000fd5b505050506040513d601f19601f820116820180604052508101906106f49190610ccd565b116107335760405162461bcd60e51b815260206004820152600f60248201526e14dd5c1c1b1e48195e18d959591959608a1b6044820152606401610446565b808211156107835760405162461bcd60e51b815260206004820181905260248201527f4e6f7420656e6f75676820746f6b656e7320696e2074686520726573657276656044820152606401610446565b336000818152600560205260408082206001019190915560048054915163a9059cbb60e01b815290810192909252602482018490526001600160a01b03169063a9059cbb906044016020604051808303816000875af11580156107ea573d6000803e3d6000fd5b505050506040513d601f19601f8201168201806040525081019061080e9190610ce6565b506040518281527f4e08ba899977cf7d4c2964bce71c6b9a7ef76ee5166a4c1249a1e08016e33ef19060200160405180910390a150506001600355565b3360009081526020819052604081205482111561089b5760405162461bcd60e51b815260206004820152600e60248201526d14dd5c1c1b1e48195e18d959195960921b6044820152606401610446565b336000908152602081905260409020546108b6908390610c9e565b33600090815260208190526040808220929092556001600160a01b038516815220546108e3908390610cb5565b6001600160a01b038416600081815260208181526040918290209390935551848152909133917fddf252ad1be2c89b69c2b068fc378daa952ba7f163c4a11628f55a4df523b3ef91016103e0565b600260035414156109845760405162461bcd60e51b815260206004820152601f60248201527f5265656e7472616e637947756172643a207265656e7472616e742063616c6c006044820152606401610446565b6002600355806109c45760405162461bcd60e51b815260206004820152600b60248201526a04d757374206265203e20360ac1b6044820152606401610446565b33600090815260056020526040812054906109df8383610cb5565b905081610a085760006109f3336000610a59565b33600090815260056020526040902060020155505b610a123383610a9d565b151560011415610a4f576000610a283383610a59565b33600081815260056020526040902060028101839055849055909150610a4d90610ad1565b505b5050600160035550565b6040805160609390931b6bffffffffffffffffffffffff19166020808501919091526034808501939093528151808503909301835260549093019052805191012090565b6001600160a01b0382166000908152600560205260408120600201546000610ac58585610a59565b91909114949350505050565b6001600160a01b038116600090815260056020526040812054906103e88210610b3e575b6103e88210610b1f5780610b0881610d08565b9150610b1890506103e883610c9e565b9150610af5565b6001600160a01b03831660009081526005602052604090206001018190555b505050565b80356001600160a01b0381168114610b5a57600080fd5b919050565b600060208284031215610b7157600080fd5b610b7a82610b43565b9392505050565b60008060408385031215610b9457600080fd5b610b9d83610b43565b946020939093013593505050565b600080600060608486031215610bc057600080fd5b610bc984610b43565b9250610bd760208501610b43565b9150604084013590509250925092565b60008060408385031215610bfa57600080fd5b610c0383610b43565b9150610c1160208401610b43565b90509250929050565b600060208083528351808285015260005b81811015610c4757858101830151858201604001528201610c2b565b81811115610c59576000604083870101525b50601f01601f1916929092016040019392505050565b600060208284031215610c8157600080fd5b5035919050565b634e487b7160e01b600052601160045260246000fd5b600082821015610cb057610cb0610c88565b500390565b60008219821115610cc857610cc8610c88565b500190565b600060208284031215610cdf57600080fd5b5051919050565b600060208284031215610cf857600080fd5b81518015158114610b7a57600080fd5b6000600019821415610d1c57610d1c610c88565b506001019056fea2646970667358221220ae9dff6333729cf28dc536301048fd2132bb3daa5d6cd1d0d5268efac3c96c8c64736f6c634300080b00336080604052683635c9adc5dea0000060025534801561001d57600080fd5b50600254336000908152602081905260409020556106e8806100406000396000f3fe608060405234801561001057600080fd5b50600436106100b45760003560e01c80635c658165116100715780635c6581651461014957806370a0823114610174578063a9059cbb1461019d578063beb486fc146101b0578063dd62ed3e146101e1578063f76f8d781461021a57600080fd5b8063095ea7b3146100b957806318160ddd146100e157806323b872dd146100f357806327e235e3146101065780632e0f262514610126578063324536eb14610140575b600080fd5b6100cc6100c736600461055d565b61023c565b60405190151581526020015b60405180910390f35b6002545b6040519081526020016100d8565b6100cc610101366004610587565b6102a8565b6100e56101143660046105c3565b60006020819052908152604090205481565b61012e601281565b60405160ff90911681526020016100d8565b6100e560025481565b6100e56101573660046105e5565b600160209081526000928352604080842090915290825290205481565b6100e56101823660046105c3565b6001600160a01b031660009081526020819052604090205490565b6100cc6101ab36600461055d565b61045b565b6101d4604051806040016040528060058152602001644547414d4560d81b81525081565b6040516100d89190610618565b6100e56101ef3660046105e5565b6001600160a01b03918216600090815260016020908152604080832093909416825291909152205490565b6101d46040518060400160405280600381526020016245474d60e81b81525081565b3360008181526001602090815260408083206001600160a01b038716808552925280832085905551919290917f8c5be1e5ebec7d5bd14f71427d1e84f3dd0314c0f7b2291e5b200ac8c7c3b925906102979086815260200190565b60405180910390a350600192915050565b6001600160a01b0383166000908152602081905260408120548211156103065760405162461bcd60e51b815260206004820152600e60248201526d14dd5c1c1b1e48195e18d959195960921b60448201526064015b60405180910390fd5b6001600160a01b03841660009081526001602090815260408083203384529091529020548211156103655760405162461bcd60e51b8152602060048201526009602482015268616c6c6f77616e636560b81b60448201526064016102fd565b6001600160a01b038416600090815260208190526040902054610389908390610683565b6001600160a01b0385166000908152602081815260408083209390935560018152828220338352905220546103bf908390610683565b6001600160a01b03808616600090815260016020908152604080832033845282528083209490945591861681529081905220546103fd90839061069a565b6001600160a01b038481166000818152602081815260409182902094909455518581529092918716917fddf252ad1be2c89b69c2b068fc378daa952ba7f163c4a11628f55a4df523b3ef910160405180910390a35060019392505050565b336000908152602081905260408120548211156104ab5760405162461bcd60e51b815260206004820152600e60248201526d14dd5c1c1b1e48195e18d959195960921b60448201526064016102fd565b336000908152602081905260409020546104c6908390610683565b33600090815260208190526040808220929092556001600160a01b038516815220546104f390839061069a565b6001600160a01b038416600081815260208181526040918290209390935551848152909133917fddf252ad1be2c89b69c2b068fc378daa952ba7f163c4a11628f55a4df523b3ef9101610297565b80356001600160a01b038116811461055857600080fd5b919050565b6000806040838503121561057057600080fd5b61057983610541565b946020939093013593505050565b60008060006060848603121561059c57600080fd5b6105a584610541565b92506105b360208501610541565b9150604084013590509250925092565b6000602082840312156105d557600080fd5b6105de82610541565b9392505050565b600080604083850312156105f857600080fd5b61060183610541565b915061060f60208401610541565b90509250929050565b600060208083528351808285015260005b8181101561064557858101830151858201604001528201610629565b81811115610657576000604083870101525b50601f01601f1916929092016040019392505050565b634e487b7160e01b600052601160045260246000fd5b6000828210156106955761069561066d565b500390565b600082198211156106ad576106ad61066d565b50019056fea264697066735822122026faf1fac689cb11ea1fa1ae252c1cc5812e9664dcb9f92297b975ff445f31ba64736f6c634300080b0033",
  "linkReferences": {},
  "deployedLinkReferences": {}
}