{
  "_format": "hh-sol-artifact-1",
  "contractName": "Egame",
  "sourceName": "contracts/Egame.sol",
  "abi": [
    {
      "inputs": [
        {
          "internalType": "contract TokenERC20",
          "name": "addressTokenContract",
          "type": "address"
        }
      ],
      "stateMutability": "nonpayable",
      "type": "constructor"
    },
    {
      "inputs": [
        {
          "internalType": "uint256",
          "name": "_score",
          "type": "uint256"
        }
      ],
      "name": "claimScore",
      "outputs": [],
      "stateMutability": "nonpayable",
      "type": "function"
    },
    {
      "inputs": [],
      "name": "claimToken",
      "outputs": [],
      "stateMutability": "nonpayable",
      "type": "function"
    },
    {
      "inputs": [
        {
          "internalType": "address",
          "name": "_player",
          "type": "address"
        }
      ],
      "name": "getScore",
      "outputs": [
        {
          "internalType": "uint256",
          "name": "",
          "type": "uint256"
        }
      ],
      "stateMutability": "view",
      "type": "function"
    },
    {
      "inputs": [
        {
          "internalType": "address",
          "name": "_player",
          "type": "address"
        }
      ],
      "name": "getToken",
      "outputs": [
        {
          "internalType": "uint256",
          "name": "",
          "type": "uint256"
        }
      ],
      "stateMutability": "view",
      "type": "function"
    },
    {
      "inputs": [
        {
          "internalType": "address",
          "name": "",
          "type": "address"
        }
      ],
      "name": "mappingPlayer",
      "outputs": [
        {
          "internalType": "uint256",
          "name": "score",
          "type": "uint256"
        },
        {
          "internalType": "uint256",
          "name": "token",
          "type": "uint256"
        },
        {
          "internalType": "bytes32",
          "name": "pointer",
          "type": "bytes32"
        }
      ],
      "stateMutability": "view",
      "type": "function"
    },
    {
      "inputs": [],
      "name": "tokenContract",
      "outputs": [
        {
          "internalType": "contract TokenERC20",
          "name": "",
          "type": "address"
        }
      ],
      "stateMutability": "view",
      "type": "function"
    }
  ],
  "bytecode": "0x60a060405234801561001057600080fd5b5060405161072d38038061072d83398101604081905261002f91610045565b60016000556001600160a01b0316608052610075565b60006020828403121561005757600080fd5b81516001600160a01b038116811461006e57600080fd5b9392505050565b60805161069061009d6000396000818160c40152818161020601526102ed01526106906000f3fe608060405234801561001057600080fd5b50600436106100625760003560e01c80630328c66a146100675780634451d89f146100b557806355a373d6146100bf57806359770438146100fe578063d47875d014610139578063d5571fc814610162575b600080fd5b610095610075366004610576565b600160208190526000918252604090912080549181015460029091015483565b604080519384526020840192909252908201526060015b60405180910390f35b6100bd610175565b005b6100e67f000000000000000000000000000000000000000000000000000000000000000081565b6040516001600160a01b0390911681526020016100ac565b61012b61010c366004610576565b6001600160a01b03166000908152600160208190526040909120015490565b6040519081526020016100ac565b61012b610147366004610576565b6001600160a01b031660009081526001602052604090205490565b6100bd6101703660046105a6565b610363565b600260005414156101cd5760405162461bcd60e51b815260206004820152601f60248201527f5265656e7472616e637947756172643a207265656e7472616e742063616c6c0060448201526064015b60405180910390fd5b60026000908155338152600160208190526040822001546040516370a0823160e01b815230600482015290915081906001600160a01b037f000000000000000000000000000000000000000000000000000000000000000016906370a0823190602401602060405180830381865afa15801561024d573d6000803e3d6000fd5b505050506040513d601f19601f8201168201806040525081019061027191906105bf565b116102b05760405162461bcd60e51b815260206004820152600f60248201526e14dd5c1c1b1e48195e18d959591959608a1b60448201526064016101c4565b336000818152600160208190526040808320909101919091555163a9059cbb60e01b81526004810191909152602481018290526001600160a01b037f0000000000000000000000000000000000000000000000000000000000000000169063a9059cbb906044016020604051808303816000875af1158015610336573d6000803e3d6000fd5b505050506040513d601f19601f8201168201806040525081019061035a91906105d8565b50506001600055565b600260005414156103b65760405162461bcd60e51b815260206004820152601f60248201527f5265656e7472616e637947756172643a207265656e7472616e742063616c6c0060448201526064016101c4565b6002600055806103f65760405162461bcd60e51b815260206004820152600b60248201526a04d757374206265203e20360ac1b60448201526064016101c4565b33600090815260016020526040812054906104118383610610565b90508161043a57600061042533600061048b565b33600090815260016020526040902060020155505b61044433836104cf565b15156001141561048157600061045a338361048b565b3360008181526001602052604090206002810183905584905590915061047f90610503565b505b5050600160005550565b6040805160609390931b6bffffffffffffffffffffffff19166020808501919091526034808501939093528151808503909301835260549093019052805191012090565b6001600160a01b03821660009081526001602052604081206002015460006104f7858561048b565b91909114949350505050565b6001600160a01b038116600090815260016020526040812054906103e88210610571575b6103e88210610551578061053a81610628565b915061054a90506103e883610643565b9150610527565b6001600160a01b0383166000908152600160208190526040909120018190555b505050565b60006020828403121561058857600080fd5b81356001600160a01b038116811461059f57600080fd5b9392505050565b6000602082840312156105b857600080fd5b5035919050565b6000602082840312156105d157600080fd5b5051919050565b6000602082840312156105ea57600080fd5b8151801515811461059f57600080fd5b634e487b7160e01b600052601160045260246000fd5b60008219821115610623576106236105fa565b500190565b600060001982141561063c5761063c6105fa565b5060010190565b600082821015610655576106556105fa565b50039056fea2646970667358221220497d9ab1cd5f77d2800b13612dbac338fcec4fc1c52e512c2bd15fba64edf0e564736f6c634300080b0033",
  "linkReferences": {},
  "deployedLinkReferences": {}
}